:100000000C9434000C9449000C9449000C94490061
:100010000C9449000C9449000C9449000C9449003C
:100020000C9449000C9449000C9449000C9449002C
:100030000C9449000C9449000C9449000C9449001C
:100040000C9449000C9449000C9449000C9449000C
:100050000C9449000C9449000C9449000C944900FC
:100060000C9449000C94490011241FBECFEFD8E036
:10007000DEBFCDBF11E0A0E0B1E0E2E7FEE002C0EC
:1000800005900D92AE33B107D9F70E94BB020C94D4
:1000900037070C940000CF93DF9300D0CDB7DEB7C5
:1000A0008A838A81805D898389810F900F90DF9197
:1000B000CF910895CF93DF93CDB7DEB729970FB6D1
:1000C000F894DEBF0FBECDBF6E837F83888799878C
:1000D00020E030E040E251E46E817F81888599859F
:1000E0000E940D06882304F520E030E0A9016E810E
:1000F0007F81888599850E948E061816ACF420E0D1
:1001000030E048EC52E46E817F81888599850E94B9
:100110009306DC01CB01BC01CD010E941206DC017B
:10012000CB019A83898337C020E030E040E251E47C
:100130006E817F81888599850E948E0688230CF1C7
:1001400020E030E048EC52E46E817F81888599851B
:100150000E940D068823ACF420E030E040E251E438
:100160006E817F81888599850E949306DC01CB0191
:10017000BC01CD010E941206DC01CB019A83898368
:100180000AC06E817F81888599850E941206DC01F4
:10019000CB019A83898389819A81969587959695D3
:1001A00087959C01ABE7B4E10E9428079695879557
:1001B0008B8389819A819C01ADECBCEC0E9428075D
:1001C000AC015695479556954795569547959A0192
:1001D000ADECBCEC0E94280796958795969587957F
:1001E00096958795880F991F9C01220F331F220F28
:1001F000331F820F931F9A01281B390BC9018C836F
:1002000049815A819A01ADECBCEC0E942807969571
:1002100087959695879596958795880F991F9C0148
:10022000220F331F220F331F820F931F9A01281BA7
:10023000390BC9018D838B8129960FB6F894DEBFE7
:100240000FBECDBFDF91CF910895CF93DF93CDB790
:10025000DEB729970FB6F894DEBF0FBECDBF6E8311
:100260007F838887998720E030E040E251E46E8107
:100270007F81888599850E940D06882304F520E0FA
:1002800030E0A9016E817F81888599850E948E0664
:100290001816ACF420E030E048EC52E46E817F8127
:1002A000888599850E949306DC01CB01BC01CD01B4
:1002B0000E941206DC01CB019A83898337C020E0BB
:1002C00030E040E251E46E817F81888599850E940B
:1002D0008E0688230CF120E030E048EC52E46E8179
:1002E0007F81888599850E940D068823ACF420E0E3
:1002F00030E040E251E46E817F81888599850E94DB
:100300009306DC01CB01BC01CD010E941206DC0189
:10031000CB019A8389830AC06E817F818885998504
:100320000E941206DC01CB019A83898389819A811C
:1003300096958795969587959C01ABE7B4E10E94C9
:100340002807969587958B8389819A819C01ADECCE
:10035000BCEC0E942807AC015695479556954795E9
:10036000569547959A01ADECBCEC0E9428079695EE
:1003700087959695879596958795880F991F9C01E7
:10038000220F331F220F331F820F931F9A01281B46
:10039000390BC9018C8349815A819A01ADECBCECBF
:1003A0000E942807969587959695879596958795A7
:1003B000880F991F9C01220F331F220F331F820FBA
:1003C000931F9A01281B390BC9018D838C812996B3
:1003D0000FB6F894DEBF0FBECDBFDF91CF91089569
:1003E000CF93DF93CDB7DEB729970FB6F894DEBF72
:1003F0000FBECDBF6E837F838887998720E030E072
:1004000040E251E46E817F81888599850E940D06C6
:10041000882304F520E030E0A9016E817F81888582
:1004200099850E948E061816ACF420E030E048EC66
:1004300052E46E817F81888599850E949306DC0154
:10044000CB01BC01CD010E941206DC01CB019A83D5
:10045000898337C020E030E040E251E46E817F8143
:10046000888599850E948E0688230CF120E030E073
:1004700048EC52E46E817F81888599850E940D0643
:100480008823ACF420E030E040E251E46E817F81CB
:10049000888599850E949306DC01CB01BC01CD01C2
:1004A0000E941206DC01CB019A8389830AC06E8107
:1004B0007F81888599850E941206DC01CB019A8391
:1004C000898389819A8196958795969587959C01D0
:1004D000ABE7B4E10E942807969587958B838981C5
:1004E0009A819C01ADECBCEC0E942807AC015695AA
:1004F000479556954795569547959A01ADECBCECB6
:100500000E94280796958795969587959695879545
:10051000880F991F9C01220F331F220F331F820F58
:10052000931F9A01281B390BC9018C8349815A8179
:100530009A01ADECBCEC0E9428079695879596959C
:10054000879596958795880F991F9C01220F331FD9
:10055000220F331F820F931F9A01281B390BC901E9
:100560008D838D8129960FB6F894DEBF0FBECDBF67
:10057000DF91CF910895CF93DF93CDB7DEB7C25807
:10058000D1090FB6F894DEBF0FBECDBF8CE090E06E
:100590000E94B30560E070E088E691E40E945A0092
:1005A0008CAF60E070E088E691E40E9425018DAF99
:1005B00060E070E088E691E40E94F0018EAF60E0B8
:1005C00070E08AEF92E40E945A00282FCE01CF9665
:1005D000FC01208360E070E08AEF92E40E94250134
:1005E000282FCE01CF96FC01218360E070E08AEFD6
:1005F00092E40E94F001282FCE01CF96FC012283C5
:100600006DEC7CEC8CEC9FE30E945A00282FCE010D
:100610008E5B9F4FFC0120836DEC7CEC8CEC9FE3A8
:100620000E942501282FCE018E5B9F4FFC01218364
:100630006DEC7CEC8CEC9FE30E94F001282FCE0146
:100640008E5B9F4FFC012283CE018B5B9F4F26E187
:10065000E0E0F1E0DC0101900D922A95E1F78CAD2C
:100660000E944B00282FCE018B5B9F4FFC01208BFB
:100670008DAD0E944B00282FCE018B5B9F4FFC015C
:10068000218B8EAD0E944B00282FCE018B5B9F4F9C
:10069000FC01238BCE01855A9F4F26E1E6E1F1E074
:1006A000DC0101900D922A95E1F7CE01CF96FC0175
:1006B00080810E944B00282FCE01855A9F4FFC015C
:1006C000218BCE01CF96FC0181810E944B00282F07
:1006D000CE01855A9F4FFC01228BCE01CF96FC01A3
:1006E00082810E944B00282FCE01855A9F4FFC012A
:1006F000238BCE018F589F4F22E1ECE2F1E0DC0129
:1007000001900D922A95E1F7CE018E5B9F4FFC017F
:1007100080810E944B00282FCE018F589F4FFC01F3
:100720002287CE018E5B9F4FFC0181810E944B008E
:10073000282FCE018F589F4FFC012487CE018E5B5E
:100740009F4FFC0182810E944B00282FCE018F58C1
:100750009F4FFC012587198281C08981882F90E0F5
:100760009E012B5B3F4F820F931FFC0180810E94F3
:10077000F20580E090E0A0E7B1E4888B998BAA8B2A
:10078000BB8B20E030E04AE753E4688979898A89A5
:100790009B890E949306DC01CB018C8B9D8BAE8BD9
:1007A000BF8B20E030E040E85FE36C897D898E8973
:1007B0009F890E940D0688232CF481E090E0998F98
:1007C000888F3FC020E03FEF4FE757E46C897D8979
:1007D0008E899F890E948E0618164CF520E030E025
:1007E00040E251E4688979898A899B890E9493064D
:1007F000DC01CB01BC01CD010E941206DC01CB0162
:10080000998F888F0FC089E190E09B8F8A8F8A8DA6
:100810009B8D0197F1F79B8F8A8F888D998D01971A
:10082000998F888F888D998D892B69F714C06C8971
:100830007D898E899F890E941206DC01CB01998FE8
:10084000888F888D998D9D8F8C8F8C8D9D8D019734
:10085000F1F79D8F8C8F89818F5F898389818631A4
:1008600008F47BCF1A8281C08A81882F90E09E0194
:10087000255A3F4F820F931FFC0180810E94F20591
:1008800080E090E0A0E7B1E48C879D87AE87BF87CA
:1008900020E030E04AE753E46C857D858E859F85B6
:1008A0000E949306DC01CB018E8F9F8FA8A3B9A372
:1008B00020E030E040E85FE36E8D7F8D88A199A154
:1008C0000E940D0688232CF481E090E09BA38AA36C
:1008D0003FC020E03FEF4FE757E46E8D7F8D88A14A
:1008E00099A10E948E0618164CF520E030E040E2F7
:1008F00051E46C857D858E859F850E949306DC0181
:10090000CB01BC01CD010E941206DC01CB019BA3EF
:100910008AA30FC089E190E09DA38CA38CA19DA127
:100920000197F1F79DA38CA38AA19BA101979BA39B
:100930008AA38AA19BA1892B69F714C06E8D7F8D34
:1009400088A199A10E941206DC01CB019BA38AA376
:100950008AA19BA19FA38EA38EA19FA10197F1F7CE
:100960009FA38EA38A818F5F8A838A81863108F450
:100970007BCF1B8281C08B81882F90E09E012F58F6
:100980003F4F820F931FFC0180810E94F20580E09F
:1009900090E0A0E7B1E48C839D83AE83BF8320E029
:1009A00030E04AE753E46C817D818E819F810E9413
:1009B0009306DC01CB0188A799A7AAA7BBA720E0D3
:1009C00030E040E85FE368A579A58AA59BA50E9471
:1009D0000D0688232CF481E090E09DA78CA73FC0F2
:1009E00020E03FEF4FE757E468A579A58AA59BA5CE
:1009F0000E948E0618164CF520E030E040E251E4EB
:100A00006C817D818E819F810E949306DC01CB01E8
:100A1000BC01CD010E941206DC01CB019DA78CA771
:100A20000FC089E190E09FA78EA78EA59FA5019793
:100A3000F1F79FA78EA78CA59DA501979DA78CA7D1
:100A40008CA59DA5892B69F714C068A579A58AA5F1
:100A50009BA50E941206DC01CB019DA78CA78CA54B
:100A60009DA599AB88AB88A999A90197F1F799AB96
:100A700088AB8B818F5F8B838B81823108F47BCF36
:100A800080E090E0ACE8B2E488879987AA87BB87CA
:100A900020E030E04AE753E4688579858A859B85C4
:100AA0000E949306DC01CB018AAB9BABACABBDAB28
:100AB00020E030E040E85FE36AA97BA98CA99DA90A
:100AC0000E940D0688232CF481E090E09FAB8EAB52
:100AD0003FC020E03FEF4FE757E46AA97BA98CA90C
:100AE0009DA90E948E0618164CF520E030E040E2E9
:100AF00051E4688579858A859B850E949306DC018F
:100B0000CB01BC01CD010E941206DC01CB019FABE1
:100B10008EAB0FC089E190E099AF88AF88AD99ADF9
:100B20000197F1F799AF88AF8EA99FA901979FAB65
:100B30008EAB8EA99FA9892B69F714C06AA97BA9DE
:100B40008CA99DA90E941206DC01CB019FAB8EAB44
:100B50008EA99FA99BAF8AAF8AAD9BAD0197F1F794
:100B60009BAF8AAFF8CDCF93DF9300D0CDB7DEB780
:100B70009A83898380EC90E020EC30E0F9012081B9
:100B80002062FC01208381EC90E021EC30E0F9014F
:100B900020812860FC01208382EC90E022EC30E090
:100BA000F90120812660FC01208385EC90E025EC92
:100BB00030E0F901408129813A81232F3327242B0A
:100BC000FC01208384EC90E024EC30E0F9013081DA
:100BD0002981232BFC01208300000F900F90DF91CF
:100BE000CF910895CF93DF931F92CDB7DEB789835E
:100BF000000080EC90E0FC018081882F90E0807202
:100C00009927892BB1F386EC90E02981FC012083A0
:100C100000000F90DF91CF9108950E94410608F4E3
:100C200081E008950E946D0688F09F5798F0B92FD3
:100C30009927B751B0F0E1F0660F771F881F991F11
:100C40001AF0BA95C9F714C0B13091F00E94870626
:100C5000B1E008950C948706672F782F8827B85F36
:100C600039F0B93FCCF3869577956795B395D9F769
:100C70003EF490958095709561957F4F8F4F9F4F73
:100C80000895990F0008550FAA0BE0E8FEEF16161D
:100C90001706E807F907C0F012161306E407F50770
:100CA00098F0621B730B840B950B39F40A2661F0E4
:100CB000232B242B252B21F408950A2609F4A14087
:100CC000A6958FEF811D811D089557FD9058440F03
:100CD000551F59F05F3F71F04795880F97FB991F9B
:100CE00061F09F3F79F08795089512161306140658
:100CF000551FF2CF4695F1DF08C0161617061806E5
:100D0000991FF1CF86957105610508940895E894BF
:100D1000BB2766277727CB0197F908950E944106E4
:100D200008F48FEF08950E94A6060C9417070E94FE
:100D3000090738F00E94100720F0952311F00C9459
:100D400000070C94060711240C9488060E9465067F
:100D500070F3959FC1F3950F50E0551F629FF0010E
:100D6000729FBB27F00DB11D639FAA27F00DB11D27
:100D7000AA1F649F6627B00DA11D661F829F2227B0
:100D8000B00DA11D621F739FB00DA11D621F839F37
:100D9000A00D611D221F749F3327A00D611D231F0D
:100DA000849F600D211D822F762F6A2F11249F575B
:100DB00050409AF0F1F088234AF0EE0FFF1FBB1F5E
:100DC000661F771F881F91505040A9F79E3F51051D
:100DD00080F00C9400070C9488065F3FE4F3983E83
:100DE000D4F3869577956795B795F795E7959F5FC7
:100DF000C1F7FE2B880F911D9695879597F9089559
:100E000097F99F6780E870E060E008959FEF80ECBD
:100E1000089500240A941616170618060906089560
:100E200000240A9412161306140605060895092EC6
:100E30000394000C11F4882352F0BB0F40F4BF2B35
:100E400011F460FF04C06F5F7F4F8F4F9F4F089575
:100E5000A29FB001B39FC001A39F700D811D1124FB
:100E6000911DB29F700D811D1124911D0895F8945C
:020E7000FFCFB2
:100E7200524D5320566F6C746167652069733A2036
:100E820058582E580D0A5065616B20437572726571
:100E92006E742069733A205858580D0A506F77655E
:0E0EA200722069733A20582E58580D0A0D0A16
:00000001FF
